{
  "_format": "hh-sol-artifact-1",
  "contractName": "MemeFutarchy",
  "sourceName": "contracts/MemeFutarchy.sol",
  "abi": [
    {
      "inputs": [],
      "stateMutability": "nonpayable",
      "type": "constructor"
    },
    {
      "anonymous": false,
      "inputs": [
        {
          "indexed": true,
          "internalType": "uint256",
          "name": "categoryId",
          "type": "uint256"
        },
        {
          "indexed": false,
          "internalType": "string",
          "name": "title",
          "type": "string"
        },
        {
          "indexed": false,
          "internalType": "address",
          "name": "proposer",
          "type": "address"
        },
        {
          "indexed": false,
          "internalType": "uint256",
          "name": "stakeAmount",
          "type": "uint256"
        },
        {
          "indexed": false,
          "internalType": "uint256",
          "name": "submissionDeadline",
          "type": "uint256"
        },
        {
          "indexed": false,
          "internalType": "uint256",
          "name": "votingDeadline",
          "type": "uint256"
        }
      ],
      "name": "CategoryCreated",
      "type": "event"
    },
    {
      "anonymous": false,
      "inputs": [
        {
          "indexed": true,
          "internalType": "uint256",
          "name": "categoryId",
          "type": "uint256"
        },
        {
          "indexed": false,
          "internalType": "uint256",
          "name": "winningMemeId",
          "type": "uint256"
        },
        {
          "indexed": false,
          "internalType": "uint256",
          "name": "winningScore",
          "type": "uint256"
        }
      ],
      "name": "CategoryResolved",
      "type": "event"
    },
    {
      "anonymous": false,
      "inputs": [
        {
          "indexed": true,
          "internalType": "uint256",
          "name": "categoryId",
          "type": "uint256"
        },
        {
          "indexed": true,
          "internalType": "uint256",
          "name": "memeId",
          "type": "uint256"
        },
        {
          "indexed": false,
          "internalType": "address",
          "name": "claimer",
          "type": "address"
        },
        {
          "indexed": false,
          "internalType": "uint256",
          "name": "payout",
          "type": "uint256"
        }
      ],
      "name": "Claimed",
      "type": "event"
    },
    {
      "anonymous": false,
      "inputs": [
        {
          "indexed": true,
          "internalType": "uint256",
          "name": "memeId",
          "type": "uint256"
        },
        {
          "indexed": true,
          "internalType": "uint256",
          "name": "categoryId",
          "type": "uint256"
        },
        {
          "indexed": false,
          "internalType": "address",
          "name": "creator",
          "type": "address"
        },
        {
          "indexed": false,
          "internalType": "string",
          "name": "ipfsHash",
          "type": "string"
        }
      ],
      "name": "MemeSubmitted",
      "type": "event"
    },
    {
      "anonymous": false,
      "inputs": [
        {
          "indexed": false,
          "internalType": "address",
          "name": "to",
          "type": "address"
        },
        {
          "indexed": false,
          "internalType": "uint256",
          "name": "amount",
          "type": "uint256"
        }
      ],
      "name": "ProtocolWithdrawn",
      "type": "event"
    },
    {
      "anonymous": false,
      "inputs": [
        {
          "indexed": true,
          "internalType": "uint256",
          "name": "memeId",
          "type": "uint256"
        },
        {
          "indexed": false,
          "internalType": "address",
          "name": "buyer",
          "type": "address"
        },
        {
          "indexed": false,
          "internalType": "uint256",
          "name": "amount",
          "type": "uint256"
        },
        {
          "indexed": false,
          "internalType": "uint256",
          "name": "cost",
          "type": "uint256"
        }
      ],
      "name": "SharesBought",
      "type": "event"
    },
    {
      "anonymous": false,
      "inputs": [
        {
          "indexed": true,
          "internalType": "uint256",
          "name": "categoryId",
          "type": "uint256"
        },
        {
          "indexed": true,
          "internalType": "uint256",
          "name": "memeId",
          "type": "uint256"
        },
        {
          "indexed": false,
          "internalType": "address",
          "name": "voter",
          "type": "address"
        },
        {
          "indexed": false,
          "internalType": "uint256",
          "name": "amount",
          "type": "uint256"
        }
      ],
      "name": "Voted",
      "type": "event"
    },
    {
      "inputs": [],
      "name": "BASE_SHARE_PRICE",
      "outputs": [
        {
          "internalType": "uint256",
          "name": "",
          "type": "uint256"
        }
      ],
      "stateMutability": "view",
      "type": "function"
    },
    {
      "inputs": [],
      "name": "CREATOR_SHARE",
      "outputs": [
        {
          "internalType": "uint256",
          "name": "",
          "type": "uint256"
        }
      ],
      "stateMutability": "view",
      "type": "function"
    },
    {
      "inputs": [],
      "name": "MARKET_WEIGHT",
      "outputs": [
        {
          "internalType": "uint256",
          "name": "",
          "type": "uint256"
        }
      ],
      "stateMutability": "view",
      "type": "function"
    },
    {
      "inputs": [],
      "name": "MAX_VOTES_PER_USER",
      "outputs": [
        {
          "internalType": "uint256",
          "name": "",
          "type": "uint256"
        }
      ],
      "stateMutability": "view",
      "type": "function"
    },
    {
      "inputs": [],
      "name": "PRICE_INCREMENT",
      "outputs": [
        {
          "internalType": "uint256",
          "name": "",
          "type": "uint256"
        }
      ],
      "stateMutability": "view",
      "type": "function"
    },
    {
      "inputs": [],
      "name": "PROTOCOL_FEE",
      "outputs": [
        {
          "internalType": "uint256",
          "name": "",
          "type": "uint256"
        }
      ],
      "stateMutability": "view",
      "type": "function"
    },
    {
      "inputs": [],
      "name": "VOTE_WEIGHT",
      "outputs": [
        {
          "internalType": "uint256",
          "name": "",
          "type": "uint256"
        }
      ],
      "stateMutability": "view",
      "type": "function"
    },
    {
      "inputs": [
        {
          "internalType": "uint256",
          "name": "_memeId",
          "type": "uint256"
        },
        {
          "internalType": "uint256",
          "name": "_amount",
          "type": "uint256"
        }
      ],
      "name": "buyShares",
      "outputs": [],
      "stateMutability": "payable",
      "type": "function"
    },
    {
      "inputs": [
        {
          "internalType": "uint256",
          "name": "",
          "type": "uint256"
        }
      ],
      "name": "categories",
      "outputs": [
        {
          "internalType": "uint256",
          "name": "id",
          "type": "uint256"
        },
        {
          "internalType": "string",
          "name": "title",
          "type": "string"
        },
        {
          "internalType": "address",
          "name": "proposer",
          "type": "address"
        },
        {
          "internalType": "uint256",
          "name": "stakeAmount",
          "type": "uint256"
        },
        {
          "internalType": "uint256",
          "name": "submissionDeadline",
          "type": "uint256"
        },
        {
          "internalType": "uint256",
          "name": "votingDeadline",
          "type": "uint256"
        },
        {
          "internalType": "uint256",
          "name": "totalPot",
          "type": "uint256"
        },
        {
          "internalType": "uint256",
          "name": "memeCount",
          "type": "uint256"
        },
        {
          "internalType": "bool",
          "name": "resolved",
          "type": "bool"
        },
        {
          "internalType": "uint256",
          "name": "winningMemeId",
          "type": "uint256"
        }
      ],
      "stateMutability": "view",
      "type": "function"
    },
    {
      "inputs": [],
      "name": "categoryCount",
      "outputs": [
        {
          "internalType": "uint256",
          "name": "",
          "type": "uint256"
        }
      ],
      "stateMutability": "view",
      "type": "function"
    },
    {
      "inputs": [
        {
          "internalType": "uint256",
          "name": "",
          "type": "uint256"
        },
        {
          "internalType": "uint256",
          "name": "",
          "type": "uint256"
        }
      ],
      "name": "categoryMemes",
      "outputs": [
        {
          "internalType": "uint256",
          "name": "",
          "type": "uint256"
        }
      ],
      "stateMutability": "view",
      "type": "function"
    },
    {
      "inputs": [
        {
          "internalType": "uint256",
          "name": "_categoryId",
          "type": "uint256"
        }
      ],
      "name": "claim",
      "outputs": [],
      "stateMutability": "nonpayable",
      "type": "function"
    },
    {
      "inputs": [
        {
          "internalType": "string",
          "name": "_title",
          "type": "string"
        },
        {
          "internalType": "uint256",
          "name": "_stakeAmount",
          "type": "uint256"
        },
        {
          "internalType": "uint256",
          "name": "_submissionDeadline",
          "type": "uint256"
        },
        {
          "internalType": "uint256",
          "name": "_votingDeadline",
          "type": "uint256"
        }
      ],
      "name": "createCategory",
      "outputs": [
        {
          "internalType": "uint256",
          "name": "",
          "type": "uint256"
        }
      ],
      "stateMutability": "nonpayable",
      "type": "function"
    },
    {
      "inputs": [
        {
          "internalType": "uint256",
          "name": "_categoryId",
          "type": "uint256"
        }
      ],
      "name": "getCategoryMemes",
      "outputs": [
        {
          "internalType": "uint256[]",
          "name": "",
          "type": "uint256[]"
        }
      ],
      "stateMutability": "view",
      "type": "function"
    },
    {
      "inputs": [
        {
          "internalType": "uint256",
          "name": "_memeId",
          "type": "uint256"
        }
      ],
      "name": "getMemeScore",
      "outputs": [
        {
          "internalType": "uint256",
          "name": "normVotes",
          "type": "uint256"
        },
        {
          "internalType": "uint256",
          "name": "normPool",
          "type": "uint256"
        },
        {
          "internalType": "uint256",
          "name": "score",
          "type": "uint256"
        }
      ],
      "stateMutability": "view",
      "type": "function"
    },
    {
      "inputs": [
        {
          "internalType": "uint256",
          "name": "_memeId",
          "type": "uint256"
        },
        {
          "internalType": "uint256",
          "name": "_amount",
          "type": "uint256"
        }
      ],
      "name": "getShareCost",
      "outputs": [
        {
          "internalType": "uint256",
          "name": "",
          "type": "uint256"
        }
      ],
      "stateMutability": "view",
      "type": "function"
    },
    {
      "inputs": [
        {
          "internalType": "uint256",
          "name": "_memeId",
          "type": "uint256"
        }
      ],
      "name": "getSharePrice",
      "outputs": [
        {
          "internalType": "uint256",
          "name": "",
          "type": "uint256"
        }
      ],
      "stateMutability": "view",
      "type": "function"
    },
    {
      "inputs": [
        {
          "internalType": "uint256",
          "name": "",
          "type": "uint256"
        },
        {
          "internalType": "address",
          "name": "",
          "type": "address"
        }
      ],
      "name": "hasBet",
      "outputs": [
        {
          "internalType": "bool",
          "name": "",
          "type": "bool"
        }
      ],
      "stateMutability": "view",
      "type": "function"
    },
    {
      "inputs": [
        {
          "internalType": "uint256",
          "name": "",
          "type": "uint256"
        },
        {
          "internalType": "address",
          "name": "",
          "type": "address"
        }
      ],
      "name": "hasSubmitted",
      "outputs": [
        {
          "internalType": "bool",
          "name": "",
          "type": "bool"
        }
      ],
      "stateMutability": "view",
      "type": "function"
    },
    {
      "inputs": [],
      "name": "memeCount",
      "outputs": [
        {
          "internalType": "uint256",
          "name": "",
          "type": "uint256"
        }
      ],
      "stateMutability": "view",
      "type": "function"
    },
    {
      "inputs": [
        {
          "internalType": "uint256",
          "name": "",
          "type": "uint256"
        }
      ],
      "name": "memes",
      "outputs": [
        {
          "internalType": "uint256",
          "name": "id",
          "type": "uint256"
        },
        {
          "internalType": "uint256",
          "name": "categoryId",
          "type": "uint256"
        },
        {
          "internalType": "address",
          "name": "creator",
          "type": "address"
        },
        {
          "internalType": "string",
          "name": "ipfsHash",
          "type": "string"
        },
        {
          "internalType": "uint256",
          "name": "voteCount",
          "type": "uint256"
        },
        {
          "internalType": "uint256",
          "name": "totalShares",
          "type": "uint256"
        },
        {
          "internalType": "uint256",
          "name": "sharePool",
          "type": "uint256"
        }
      ],
      "stateMutability": "view",
      "type": "function"
    },
    {
      "inputs": [],
      "name": "owner",
      "outputs": [
        {
          "internalType": "address",
          "name": "",
          "type": "address"
        }
      ],
      "stateMutability": "view",
      "type": "function"
    },
    {
      "inputs": [],
      "name": "protocolBalance",
      "outputs": [
        {
          "internalType": "uint256",
          "name": "",
          "type": "uint256"
        }
      ],
      "stateMutability": "view",
      "type": "function"
    },
    {
      "inputs": [
        {
          "internalType": "uint256",
          "name": "_categoryId",
          "type": "uint256"
        }
      ],
      "name": "resolveCategory",
      "outputs": [],
      "stateMutability": "nonpayable",
      "type": "function"
    },
    {
      "inputs": [
        {
          "internalType": "uint256",
          "name": "",
          "type": "uint256"
        },
        {
          "internalType": "address",
          "name": "",
          "type": "address"
        }
      ],
      "name": "shares",
      "outputs": [
        {
          "internalType": "uint256",
          "name": "",
          "type": "uint256"
        }
      ],
      "stateMutability": "view",
      "type": "function"
    },
    {
      "inputs": [
        {
          "internalType": "uint256",
          "name": "_categoryId",
          "type": "uint256"
        },
        {
          "internalType": "string",
          "name": "_ipfsHash",
          "type": "string"
        }
      ],
      "name": "submitMeme",
      "outputs": [
        {
          "internalType": "uint256",
          "name": "",
          "type": "uint256"
        }
      ],
      "stateMutability": "payable",
      "type": "function"
    },
    {
      "inputs": [
        {
          "internalType": "uint256",
          "name": "",
          "type": "uint256"
        },
        {
          "internalType": "address",
          "name": "",
          "type": "address"
        }
      ],
      "name": "userBetMeme",
      "outputs": [
        {
          "internalType": "uint256",
          "name": "",
          "type": "uint256"
        }
      ],
      "stateMutability": "view",
      "type": "function"
    },
    {
      "inputs": [
        {
          "internalType": "uint256",
          "name": "_categoryId",
          "type": "uint256"
        },
        {
          "internalType": "uint256[]",
          "name": "_memeIds",
          "type": "uint256[]"
        },
        {
          "internalType": "uint256[]",
          "name": "_voteAmounts",
          "type": "uint256[]"
        }
      ],
      "name": "vote",
      "outputs": [],
      "stateMutability": "nonpayable",
      "type": "function"
    },
    {
      "inputs": [
        {
          "internalType": "uint256",
          "name": "",
          "type": "uint256"
        },
        {
          "internalType": "address",
          "name": "",
          "type": "address"
        }
      ],
      "name": "votesUsed",
      "outputs": [
        {
          "internalType": "uint256",
          "name": "",
          "type": "uint256"
        }
      ],
      "stateMutability": "view",
      "type": "function"
    },
    {
      "inputs": [
        {
          "internalType": "address",
          "name": "_to",
          "type": "address"
        }
      ],
      "name": "withdrawProtocolFees",
      "outputs": [],
      "stateMutability": "nonpayable",
      "type": "function"
    },
    {
      "stateMutability": "payable",
      "type": "receive"
    }
  ],
  "bytecode": "0x608060405234801561001057600080fd5b50600080546001600160a01b0319163317905561253f806100326000396000f3fe6080604052600436106101d05760003560e01c806382481d49116100f7578063bca7d4e111610095578063cc0c303911610064578063cc0c3039146105af578063eef4da5f146105c4578063f31bf099146105e4578063f61fae47146105f957600080fd5b8063bca7d4e11461050e578063beebc5da1461052e578063c6cdbe5e14610541578063c7b8da601461057757600080fd5b8063a57d3806116100d1578063a57d380614610468578063ae062acd146104b3578063b763232e146104ee578063bc18322d1461021d57600080fd5b806382481d49146103c05780638da5cb5b146103f85780639523730e1461043057600080fd5b8063388f60641161016f57806361e98db81161013e57806361e98db81461035a5780636d25d8021461037057806374cae1641461038a5780637b2124d2146103aa57600080fd5b8063388f60641461029f578063433af4ae146102d257806353adfe8f146102ff5780635fd306371461033a57600080fd5b8063296425b5116101ab578063296425b5146102325780632be32dbb146102475780632d80caa51461025d578063379607f51461027f57600080fd5b8062bb1871146101dc5780630873cc7d146102025780630b4501fd1461021d57600080fd5b366101d757005b600080fd5b6101ef6101ea366004611f08565b610619565b6040519081526020015b60405180910390f35b34801561020e57600080fd5b506101ef66038d7ea4c6800081565b34801561022957600080fd5b506101ef600581565b34801561023e57600080fd5b506101ef603c81565b34801561025357600080fd5b506101ef60015481565b34801561026957600080fd5b5061027d610278366004611f70565b610941565b005b34801561028b57600080fd5b5061027d61029a366004611f8b565b610a9f565b3480156102ab57600080fd5b506102bf6102ba366004611f8b565b610d4f565b6040516101f99796959493929190611fea565b3480156102de57600080fd5b506102f26102ed366004611f8b565b610e1e565b6040516101f99190612036565b34801561030b57600080fd5b5061031f61031a366004611f8b565b610e80565b604080519384526020840192909252908201526060016101f9565b34801561034657600080fd5b5061027d6103553660046120bf565b610fb5565b34801561036657600080fd5b506101ef60035481565b34801561037c57600080fd5b506101ef655af3107a400081565b34801561039657600080fd5b5061027d6103a5366004611f8b565b611360565b3480156103b657600080fd5b506101ef60025481565b3480156103cc57600080fd5b506101ef6103db366004612139565b600760209081526000928352604080842090915290825290205481565b34801561040457600080fd5b50600054610418906001600160a01b031681565b6040516001600160a01b0390911681526020016101f9565b34801561043c57600080fd5b506101ef61044b366004612139565b600860209081526000928352604080842090915290825290205481565b34801561047457600080fd5b506104a3610483366004612139565b600b60209081526000928352604080842090915290825290205460ff1681565b60405190151581526020016101f9565b3480156104bf57600080fd5b506104a36104ce366004612139565b600960209081526000928352604080842090915290825290205460ff1681565b3480156104fa57600080fd5b506101ef610509366004612165565b6116b3565b34801561051a57600080fd5b506101ef610529366004611f8b565b6116d8565b61027d61053c366004612165565b61170c565b34801561054d57600080fd5b5061056161055c366004611f8b565b611aa8565b6040516101f99a99989796959493929190612187565b34801561058357600080fd5b506101ef610592366004612139565b600a60209081526000928352604080842090915290825290205481565b3480156105bb57600080fd5b506101ef601481565b3480156105d057600080fd5b506101ef6105df3660046121ee565b611b8f565b3480156105f057600080fd5b506101ef602881565b34801561060557600080fd5b506101ef610614366004612165565b611e1c565b6000838152600460205260408120805482036106505760405162461bcd60e51b815260040161064790612248565b60405180910390fd5b806004015442106106985760405162461bcd60e51b81526020600482015260126024820152711cdd589b5a5cdcda5bdb9cc818db1bdcd95960721b6044820152606401610647565b806003015434146106e05760405162461bcd60e51b81526020600482015260126024820152711ddc9bdb99c81cdd185ad948185b5bdd5b9d60721b6044820152606401610647565b6000858152600b6020908152604080832033845290915290205460ff161561073e5760405162461bcd60e51b8152602060048201526011602482015270185b1c9958591e481cdd589b5a5d1d1959607a1b6044820152606401610647565b8261077d5760405162461bcd60e51b815260206004820152600f60248201526e0cadae0e8f240d2e0cce640d0c2e6d608b1b6044820152606401610647565b6002805490600061078d8361228e565b91905055506040518060e001604052806002548152602001868152602001336001600160a01b0316815260200185858080601f016020809104026020016040519081016040528093929190818152602001838380828437600092018290525093855250505060208083018290526040808401839052606093840183905260028054845260058352928190208551815591850151600183015584015191810180546001600160a01b0319166001600160a01b039093169290921790915590820151600382019061085c9082612344565b506080820151600482015560a0820151600582015560c090910151600691820155600086815260209182526040812060025481546001810183559183529282200191909155600782018054916108b18361228e565b9190505550348160060160008282546108ca9190612404565b90915550506000858152600b6020908152604080832033808552925291829020805460ff1916600117905560025491518792917f93ffa5f95e83dda7515e64a7001127029fc3a7d39720200a0bc7ad6be9a49c589161092d919089908990612440565b60405180910390a350506002549392505050565b6000546001600160a01b031633146109875760405162461bcd60e51b81526020600482015260096024820152683737ba1037bbb732b960b91b6044820152606401610647565b600354806109c15760405162461bcd60e51b81526020600482015260076024820152666e6f206665657360c81b6044820152606401610647565b600060038190556040516001600160a01b0384169083908381818185875af1925050503d8060008114610a10576040519150601f19603f3d011682016040523d82523d6000602084013e610a15565b606091505b5050905080610a585760405162461bcd60e51b815260206004820152600f60248201526e1d1c985b9cd9995c8819985a5b1959608a1b6044820152606401610647565b604080516001600160a01b0385168152602081018490527f329e24eecddd526f689268053e0cf1820ec2f66754f4e02dfb3ecf8876a20934910160405180910390a1505050565b6000818152600460205260409020600881015460ff16610af05760405162461bcd60e51b815260206004820152600c60248201526b1b9bdd081c995cdbdb1d995960a21b6044820152606401610647565b6009810154600081815260056020819052604082206006850154909291606491610b1a9190612465565b610b24919061247c565b8460060154610b33919061249e565b60028301549091506000906001600160a01b03163303610b9c5760008360050154600003610b62575081610b7c565b6064610b6f601485612465565b610b79919061247c565b90505b610b868183612404565b6002850180546001600160a01b03191690559150505b60008481526007602090815260408083203384529091529020548015801590610bc9575060008460050154115b15610c3b5760006064610bdd60148261249e565b610be79086612465565b610bf1919061247c565b9050600085600501548383610c069190612465565b610c10919061247c565b9050610c1c8185612404565b6000888152600760209081526040808320338452909152812055935050505b60008211610c7e5760405162461bcd60e51b815260206004820152601060248201526f6e6f7468696e6720746f20636c61696d60801b6044820152606401610647565b604051600090339084908381818185875af1925050503d8060008114610cc0576040519150601f19603f3d011682016040523d82523d6000602084013e610cc5565b606091505b5050905080610d085760405162461bcd60e51b815260206004820152600f60248201526e1d1c985b9cd9995c8819985a5b1959608a1b6044820152606401610647565b604080513381526020810185905287918a917fb94bf7f9302edf52a596286915a69b4b0685574cffdedd0712e3c62f2550f0ba910160405180910390a35050505050505050565b6005602052600090815260409020805460018201546002830154600384018054939492936001600160a01b039092169291610d89906122bd565b80601f0160208091040260200160405190810160405280929190818152602001828054610db5906122bd565b8015610e025780601f10610dd757610100808354040283529160200191610e02565b820191906000526020600020905b815481529060010190602001808311610de557829003601f168201915b5050505050908060040154908060050154908060060154905087565b600081815260066020908152604091829020805483518184028101840190945280845260609392830182828015610e7457602002820191906000526020600020905b815481526020019060010190808311610e60575b50505050509050919050565b60008181526005602090815260408083206001810154845260069092528220829182918280805b8354811015610f1457600060056000868481548110610ec857610ec86124b1565b9060005260206000200154815260200190815260200160002090508381600401541115610ef757806004015493505b8281600601541115610f0b57806006015492505b50600101610ea7565b5060008211610f24576000610f47565b818460040154670de0b6b3a7640000610f3d9190612465565b610f47919061247c565b965060008111610f58576000610f7b565b808460060154670de0b6b3a7640000610f719190612465565b610f7b919061247c565b95506064610f8a602888612465565b610f95603c8a612465565b610f9f9190612404565b610fa9919061247c565b96989597505050505050565b60008581526004602052604081208054909103610fe45760405162461bcd60e51b815260040161064790612248565b806004015442101561102e5760405162461bcd60e51b81526020600482015260136024820152721d9bdd1a5b99c81b9bdd081bdc195b881e595d606a1b6044820152606401610647565b806005015442106110715760405162461bcd60e51b815260206004820152600d60248201526c1d9bdd1a5b99c818db1bdcd959609a1b6044820152606401610647565b6000868152600860209081526040808320338452909152902054156110c85760405162461bcd60e51b815260206004820152600d60248201526c185b1c9958591e481d9bdd1959609a1b6044820152606401610647565b8382146111095760405162461bcd60e51b815260206004820152600f60248201526e0d8cadccee8d040dad2e6dac2e8c6d608b1b6044820152606401610647565b836111435760405162461bcd60e51b815260206004820152600a602482015269656d70747920766f746560b01b6044820152606401610647565b6000805b858110156112f5576000858583818110611163576111636124b1565b90506020020135116111a45760405162461bcd60e51b815260206004820152600a6024820152697a65726f20766f74657360b01b6044820152606401610647565b6000600560008989858181106111bc576111bc6124b1565b90506020020135815260200190815260200160002090508881600101541461121d5760405162461bcd60e51b81526020600482015260146024820152736d656d65206e6f7420696e2063617465676f727960601b6044820152606401610647565b85858381811061122f5761122f6124b1565b905060200201358160040160008282546112499190612404565b909155508690508583818110611261576112616124b1565b90506020020135836112739190612404565b9250878783818110611287576112876124b1565b90506020020135897f41df84b3b467b06744e40c92613c666324e7c640ce0a41ec06efdf602d367606338989878181106112c3576112c36124b1565b604080516001600160a01b0390951685526020918202939093013590840152500160405180910390a350600101611147565b50600581111561133b5760405162461bcd60e51b815260206004820152601160248201527065786365656473206d617820766f74657360781b6044820152606401610647565b6000968752600860209081526040808920338a52909152909620959095555050505050565b6000818152600460205260408120805490910361138f5760405162461bcd60e51b815260040161064790612248565b80600501544210156113d55760405162461bcd60e51b815260206004820152600f60248201526e3b37ba34b733903737ba1037bb32b960891b6044820152606401610647565b600881015460ff161561141d5760405162461bcd60e51b815260206004820152601060248201526f185b1c9958591e481c995cdbdb1d995960821b6044820152606401610647565b60008160070154116114665760405162461bcd60e51b81526020600482015260126024820152711b9bc81b595b595cc81cdd589b5a5d1d195960721b6044820152606401610647565b60008281526006602052604081209080805b83548110156114e557600060056000868481548110611499576114996124b1565b90600052602060002001548152602001908152602001600020905083816004015411156114c857806004015493505b82816006015411156114dc57806006015492505b50600101611478565b50600080846000815481106114fc576114fc6124b1565b9060005260206000200154905060005b855481101561161d5760006005600088848154811061152d5761152d6124b1565b906000526020600020015481526020019081526020016000209050600080871161155857600061157b565b868260040154670de0b6b3a76400006115719190612465565b61157b919061247c565b9050600080871161158d5760006115b0565b868360060154670de0b6b3a76400006115a69190612465565b6115b0919061247c565b9050600060646115c1602884612465565b6115cc603c86612465565b6115d69190612404565b6115e0919061247c565b90508681111561160d578096508985815481106115ff576115ff6124b1565b906000526020600020015495505b50506001909201915061150c9050565b5060088601805460ff1916600117905560098601819055600686015460009060649061164b90600590612465565b611655919061247c565b905080600360008282546116699190612404565b9091555050604080518381526020810185905289917fb7f4bf7cb0c87c1c64a28ae81e9bf713f5e179b8d1aec2adb6806cf5b7a13353910160405180910390a25050505050505050565b6000828152600560208190526040822001546116cf9083611e4d565b90505b92915050565b6000818152600560208190526040822001546116fb90655af3107a400090612465565b6116d29066038d7ea4c68000612404565b600081116117515760405162461bcd60e51b81526020600482015260126024820152710616d6f756e74206d757374206265203e20360741b6044820152606401610647565b600082815260056020526040812080549091036117a55760405162461bcd60e51b81526020600482015260126024820152711b595b5948191bd95cdb89dd08195e1a5cdd60721b6044820152606401610647565b60018101546000908152600460208190526040909120908101544210156118045760405162461bcd60e51b81526020600482015260136024820152721b585c9ad95d081b9bdd081bdc195b881e595d606a1b6044820152606401610647565b806005015442106118475760405162461bcd60e51b815260206004820152600d60248201526c1b585c9ad95d0818db1bdcd959609a1b6044820152606401610647565b6001820154600090815260096020908152604080832033845290915290205460ff16156118ad5760405162461bcd60e51b8152602060048201526014602482015273185b1c9958591e481c1b1858d95908184818995d60621b6044820152606401610647565b60006118bd836005015485611e4d565b9050803410156119065760405162461bcd60e51b81526020600482015260146024820152731a5b9cdd59999a58da595b9d081c185e5b595b9d60621b6044820152606401610647565b60008581526007602090815260408083203384529091528120805486929061192f908490612404565b925050819055508383600501600082825461194a9190612404565b92505081905550808360060160008282546119659190612404565b92505081905550808260060160008282546119809190612404565b909155505060018381018054600090815260096020908152604080832033808552908352818420805460ff191690961790955592548252600a815282822084835281529082902088905581519283528201869052810182905285907f0831583cced7554a81e1cd091e811afaadc7d575a17fbd354716145bb597efc99060600160405180910390a280341115611aa157600033611a1d833461249e565b604051600081818185875af1925050503d8060008114611a59576040519150601f19603f3d011682016040523d82523d6000602084013e611a5e565b606091505b5050905080611a9f5760405162461bcd60e51b815260206004820152600d60248201526c1c99599d5b990819985a5b1959609a1b6044820152606401610647565b505b5050505050565b60046020526000908152604090208054600182018054919291611aca906122bd565b80601f0160208091040260200160405190810160405280929190818152602001828054611af6906122bd565b8015611b435780601f10611b1857610100808354040283529160200191611b43565b820191906000526020600020905b815481529060010190602001808311611b2657829003601f168201915b50505050600283015460038401546004850154600586015460068701546007880154600889015460099099015497986001600160a01b03909616979496509294919390929160ff16908a565b6000808411611bd45760405162461bcd60e51b815260206004820152601160248201527007374616b65206d757374206265203e203607c1b6044820152606401610647565b428311611c2e5760405162461bcd60e51b815260206004820152602260248201527f7375626d697373696f6e20646561646c696e65206d7573742062652066757475604482015261726560f01b6064820152608401610647565b828211611c875760405162461bcd60e51b815260206004820152602160248201527f766f74696e67206d75737420656e64206166746572207375626d697373696f6e6044820152607360f81b6064820152608401610647565b60018054906000611c978361228e565b9190505550604051806101400160405280600154815260200187878080601f016020809104026020016040519081016040528093929190818152602001838380828437600092018290525093855250503360208085019190915260408085018a9052606085018990526080850188905260a0850184905260c0850184905260e08501849052610100909401839052600180548452600482529390922084518155918401519192830191611d4b915082612344565b506040828101516002830180546001600160a01b0319166001600160a01b03909216919091179055606083015160038301556080830151600483015560a0830151600583015560c0830151600683015560e0830151600783015561010083015160088301805460ff19169115159190911790556101209092015160099091015560015490517fd39800a1b330313d62e334b13e34fe54968c16638bf1daaf661413d2f7ab0b5690611e07908990899033908a908a908a906124c7565b60405180910390a25060015495945050505050565b60066020528160005260406000208181548110611e3857600080fd5b90600052602060002001600091509150505481565b600080611e6166038d7ea4c6800084612465565b905060006002611e7260018661249e565b611e7c9086612465565b611e86919061247c565b611e908686612465565b611e9a9190612404565b611eaa90655af3107a4000612465565b9050611eb68183612404565b95945050505050565b60008083601f840112611ed157600080fd5b50813567ffffffffffffffff811115611ee957600080fd5b602083019150836020828501011115611f0157600080fd5b9250929050565b600080600060408486031215611f1d57600080fd5b83359250602084013567ffffffffffffffff811115611f3b57600080fd5b611f4786828701611ebf565b9497909650939450505050565b80356001600160a01b0381168114611f6b57600080fd5b919050565b600060208284031215611f8257600080fd5b6116cf82611f54565b600060208284031215611f9d57600080fd5b5035919050565b6000815180845260005b81811015611fca57602081850181015186830182015201611fae565b506000602082860101526020601f19601f83011685010191505092915050565b87815286602082015260018060a01b038616604082015260e06060820152600061201760e0830187611fa4565b60808301959095525060a081019290925260c090910152949350505050565b6020808252825182820181905260009190848201906040850190845b8181101561206e57835183529284019291840191600101612052565b50909695505050505050565b60008083601f84011261208c57600080fd5b50813567ffffffffffffffff8111156120a457600080fd5b6020830191508360208260051b8501011115611f0157600080fd5b6000806000806000606086880312156120d757600080fd5b85359450602086013567ffffffffffffffff808211156120f657600080fd5b61210289838a0161207a565b9096509450604088013591508082111561211b57600080fd5b506121288882890161207a565b969995985093965092949392505050565b6000806040838503121561214c57600080fd5b8235915061215c60208401611f54565b90509250929050565b6000806040838503121561217857600080fd5b50508035926020909101359150565b60006101408c83528060208401526121a18184018d611fa4565b6001600160a01b039b909b16604084015250506060810197909752608087019590955260a086019390935260c085019190915260e084015215156101008301526101209091015292915050565b60008060008060006080868803121561220657600080fd5b853567ffffffffffffffff81111561221d57600080fd5b61222988828901611ebf565b9099909850602088013597604081013597506060013595509350505050565b60208082526016908201527518d85d1959dbdc9e48191bd95cdb89dd08195e1a5cdd60521b604082015260600190565b634e487b7160e01b600052601160045260246000fd5b6000600182016122a0576122a0612278565b5060010190565b634e487b7160e01b600052604160045260246000fd5b600181811c908216806122d157607f821691505b6020821081036122f157634e487b7160e01b600052602260045260246000fd5b50919050565b601f82111561233f576000816000526020600020601f850160051c810160208610156123205750805b601f850160051c820191505b81811015611a9f5782815560010161232c565b505050565b815167ffffffffffffffff81111561235e5761235e6122a7565b6123728161236c84546122bd565b846122f7565b602080601f8311600181146123a7576000841561238f5750858301515b600019600386901b1c1916600185901b178555611a9f565b600085815260208120601f198616915b828110156123d6578886015182559484019460019091019084016123b7565b50858210156123f45787850151600019600388901b60f8161c191681555b5050505050600190811b01905550565b808201808211156116d2576116d2612278565b81835281816020850137506000828201602090810191909152601f909101601f19169091010190565b6001600160a01b0384168152604060208201819052600090611eb69083018486612417565b80820281158282048414176116d2576116d2612278565b60008261249957634e487b7160e01b600052601260045260246000fd5b500490565b818103818111156116d2576116d2612278565b634e487b7160e01b600052603260045260246000fd5b60a0815260006124db60a08301888a612417565b6001600160a01b0396909616602083015250604081019390935260608301919091526080909101529291505056fea2646970667358221220baeca81d4466615e2b92b7ce65c97b79f693a41cc3ca220e3fe9c8b955c8552564736f6c63430008180033",
  "linkReferences": {},
  "deployedLinkReferences": {}
}